{
  "_format": "hh-sol-artifact-1",
  "contractName": "ObiBadges1155",
  "sourceName": "contracts/ObiBadges1155.sol",
  "abi": [
    {
      "inputs": [
        {
          "internalType": "string",
          "name": "baseURI_",
          "type": "string"
        }
      ],
      "stateMutability": "nonpayable",
      "type": "constructor"
    },
    {
      "inputs": [
        {
          "internalType": "address",
          "name": "sender",
          "type": "address"
        },
        {
          "internalType": "uint256",
          "name": "balance",
          "type": "uint256"
        },
        {
          "internalType": "uint256",
          "name": "needed",
          "type": "uint256"
        },
        {
          "internalType": "uint256",
          "name": "tokenId",
          "type": "uint256"
        }
      ],
      "name": "ERC1155InsufficientBalance",
      "type": "error"
    },
    {
      "inputs": [
        {
          "internalType": "address",
          "name": "approver",
          "type": "address"
        }
      ],
      "name": "ERC1155InvalidApprover",
      "type": "error"
    },
    {
      "inputs": [
        {
          "internalType": "uint256",
          "name": "idsLength",
          "type": "uint256"
        },
        {
          "internalType": "uint256",
          "name": "valuesLength",
          "type": "uint256"
        }
      ],
      "name": "ERC1155InvalidArrayLength",
      "type": "error"
    },
    {
      "inputs": [
        {
          "internalType": "address",
          "name": "operator",
          "type": "address"
        }
      ],
      "name": "ERC1155InvalidOperator",
      "type": "error"
    },
    {
      "inputs": [
        {
          "internalType": "address",
          "name": "receiver",
          "type": "address"
        }
      ],
      "name": "ERC1155InvalidReceiver",
      "type": "error"
    },
    {
      "inputs": [
        {
          "internalType": "address",
          "name": "sender",
          "type": "address"
        }
      ],
      "name": "ERC1155InvalidSender",
      "type": "error"
    },
    {
      "inputs": [
        {
          "internalType": "address",
          "name": "operator",
          "type": "address"
        },
        {
          "internalType": "address",
          "name": "owner",
          "type": "address"
        }
      ],
      "name": "ERC1155MissingApprovalForAll",
      "type": "error"
    },
    {
      "inputs": [
        {
          "internalType": "address",
          "name": "owner",
          "type": "address"
        }
      ],
      "name": "OwnableInvalidOwner",
      "type": "error"
    },
    {
      "inputs": [
        {
          "internalType": "address",
          "name": "account",
          "type": "address"
        }
      ],
      "name": "OwnableUnauthorizedAccount",
      "type": "error"
    },
    {
      "anonymous": false,
      "inputs": [
        {
          "indexed": true,
          "internalType": "address",
          "name": "account",
          "type": "address"
        },
        {
          "indexed": true,
          "internalType": "address",
          "name": "operator",
          "type": "address"
        },
        {
          "indexed": false,
          "internalType": "bool",
          "name": "approved",
          "type": "bool"
        }
      ],
      "name": "ApprovalForAll",
      "type": "event"
    },
    {
      "anonymous": false,
      "inputs": [
        {
          "indexed": true,
          "internalType": "address",
          "name": "to",
          "type": "address"
        },
        {
          "indexed": true,
          "internalType": "uint256",
          "name": "id",
          "type": "uint256"
        }
      ],
      "name": "Minted",
      "type": "event"
    },
    {
      "anonymous": false,
      "inputs": [
        {
          "indexed": true,
          "internalType": "address",
          "name": "previousOwner",
          "type": "address"
        },
        {
          "indexed": true,
          "internalType": "address",
          "name": "newOwner",
          "type": "address"
        }
      ],
      "name": "OwnershipTransferred",
      "type": "event"
    },
    {
      "anonymous": false,
      "inputs": [
        {
          "indexed": true,
          "internalType": "address",
          "name": "operator",
          "type": "address"
        },
        {
          "indexed": true,
          "internalType": "address",
          "name": "from",
          "type": "address"
        },
        {
          "indexed": true,
          "internalType": "address",
          "name": "to",
          "type": "address"
        },
        {
          "indexed": false,
          "internalType": "uint256[]",
          "name": "ids",
          "type": "uint256[]"
        },
        {
          "indexed": false,
          "internalType": "uint256[]",
          "name": "values",
          "type": "uint256[]"
        }
      ],
      "name": "TransferBatch",
      "type": "event"
    },
    {
      "anonymous": false,
      "inputs": [
        {
          "indexed": true,
          "internalType": "address",
          "name": "operator",
          "type": "address"
        },
        {
          "indexed": true,
          "internalType": "address",
          "name": "from",
          "type": "address"
        },
        {
          "indexed": true,
          "internalType": "address",
          "name": "to",
          "type": "address"
        },
        {
          "indexed": false,
          "internalType": "uint256",
          "name": "id",
          "type": "uint256"
        },
        {
          "indexed": false,
          "internalType": "uint256",
          "name": "value",
          "type": "uint256"
        }
      ],
      "name": "TransferSingle",
      "type": "event"
    },
    {
      "anonymous": false,
      "inputs": [
        {
          "indexed": false,
          "internalType": "string",
          "name": "value",
          "type": "string"
        },
        {
          "indexed": true,
          "internalType": "uint256",
          "name": "id",
          "type": "uint256"
        }
      ],
      "name": "URI",
      "type": "event"
    },
    {
      "inputs": [
        {
          "internalType": "address",
          "name": "account",
          "type": "address"
        },
        {
          "internalType": "uint256",
          "name": "id",
          "type": "uint256"
        }
      ],
      "name": "balanceOf",
      "outputs": [
        {
          "internalType": "uint256",
          "name": "",
          "type": "uint256"
        }
      ],
      "stateMutability": "view",
      "type": "function"
    },
    {
      "inputs": [
        {
          "internalType": "address[]",
          "name": "accounts",
          "type": "address[]"
        },
        {
          "internalType": "uint256[]",
          "name": "ids",
          "type": "uint256[]"
        }
      ],
      "name": "balanceOfBatch",
      "outputs": [
        {
          "internalType": "uint256[]",
          "name": "",
          "type": "uint256[]"
        }
      ],
      "stateMutability": "view",
      "type": "function"
    },
    {
      "inputs": [
        {
          "internalType": "address",
          "name": "",
          "type": "address"
        },
        {
          "internalType": "uint256",
          "name": "",
          "type": "uint256"
        }
      ],
      "name": "claimed",
      "outputs": [
        {
          "internalType": "bool",
          "name": "",
          "type": "bool"
        }
      ],
      "stateMutability": "view",
      "type": "function"
    },
    {
      "inputs": [
        {
          "internalType": "address",
          "name": "account",
          "type": "address"
        },
        {
          "internalType": "address",
          "name": "operator",
          "type": "address"
        }
      ],
      "name": "isApprovedForAll",
      "outputs": [
        {
          "internalType": "bool",
          "name": "",
          "type": "bool"
        }
      ],
      "stateMutability": "view",
      "type": "function"
    },
    {
      "inputs": [
        {
          "internalType": "address[]",
          "name": "tos",
          "type": "address[]"
        },
        {
          "internalType": "uint256",
          "name": "dayId",
          "type": "uint256"
        }
      ],
      "name": "mintBatch",
      "outputs": [],
      "stateMutability": "nonpayable",
      "type": "function"
    },
    {
      "inputs": [
        {
          "internalType": "address",
          "name": "to",
          "type": "address"
        },
        {
          "internalType": "uint256",
          "name": "dayId",
          "type": "uint256"
        }
      ],
      "name": "mintTo",
      "outputs": [],
      "stateMutability": "nonpayable",
      "type": "function"
    },
    {
      "inputs": [],
      "name": "owner",
      "outputs": [
        {
          "internalType": "address",
          "name": "",
          "type": "address"
        }
      ],
      "stateMutability": "view",
      "type": "function"
    },
    {
      "inputs": [],
      "name": "renounceOwnership",
      "outputs": [],
      "stateMutability": "nonpayable",
      "type": "function"
    },
    {
      "inputs": [
        {
          "internalType": "address",
          "name": "from",
          "type": "address"
        },
        {
          "internalType": "address",
          "name": "to",
          "type": "address"
        },
        {
          "internalType": "uint256[]",
          "name": "ids",
          "type": "uint256[]"
        },
        {
          "internalType": "uint256[]",
          "name": "values",
          "type": "uint256[]"
        },
        {
          "internalType": "bytes",
          "name": "data",
          "type": "bytes"
        }
      ],
      "name": "safeBatchTransferFrom",
      "outputs": [],
      "stateMutability": "nonpayable",
      "type": "function"
    },
    {
      "inputs": [
        {
          "internalType": "address",
          "name": "from",
          "type": "address"
        },
        {
          "internalType": "address",
          "name": "to",
          "type": "address"
        },
        {
          "internalType": "uint256",
          "name": "id",
          "type": "uint256"
        },
        {
          "internalType": "uint256",
          "name": "value",
          "type": "uint256"
        },
        {
          "internalType": "bytes",
          "name": "data",
          "type": "bytes"
        }
      ],
      "name": "safeTransferFrom",
      "outputs": [],
      "stateMutability": "nonpayable",
      "type": "function"
    },
    {
      "inputs": [
        {
          "internalType": "address",
          "name": "operator",
          "type": "address"
        },
        {
          "internalType": "bool",
          "name": "approved",
          "type": "bool"
        }
      ],
      "name": "setApprovalForAll",
      "outputs": [],
      "stateMutability": "nonpayable",
      "type": "function"
    },
    {
      "inputs": [
        {
          "internalType": "string",
          "name": "baseURI_",
          "type": "string"
        }
      ],
      "name": "setBaseURI",
      "outputs": [],
      "stateMutability": "nonpayable",
      "type": "function"
    },
    {
      "inputs": [
        {
          "internalType": "bytes4",
          "name": "interfaceId",
          "type": "bytes4"
        }
      ],
      "name": "supportsInterface",
      "outputs": [
        {
          "internalType": "bool",
          "name": "",
          "type": "bool"
        }
      ],
      "stateMutability": "view",
      "type": "function"
    },
    {
      "inputs": [
        {
          "internalType": "address",
          "name": "newOwner",
          "type": "address"
        }
      ],
      "name": "transferOwnership",
      "outputs": [],
      "stateMutability": "nonpayable",
      "type": "function"
    },
    {
      "inputs": [
        {
          "internalType": "uint256",
          "name": "id",
          "type": "uint256"
        }
      ],
      "name": "uri",
      "outputs": [
        {
          "internalType": "string",
          "name": "",
          "type": "string"
        }
      ],
      "stateMutability": "view",
      "type": "function"
    }
  ],
  "bytecode": "0x608060405234801561001057600080fd5b5060405161350938038061350983398181016040528101906100329190610339565b3360405180602001604052806000815250610052816100eb60201b60201c565b50600073ffffffffffffffffffffffffffffffffffffffff168173ffffffffffffffffffffffffffffffffffffffff16036100c55760006040517f1e4fbdf70000000000000000000000000000000000000000000000000000000081526004016100bc91906103c3565b60405180910390fd5b6100d4816100fe60201b60201c565b5080600490816100e491906105ff565b50506106d1565b80600290816100fa91906105ff565b5050565b6000600360009054906101000a900473ffffffffffffffffffffffffffffffffffffffff16905081600360006101000a81548173ffffffffffffffffffffffffffffffffffffffff021916908373ffffffffffffffffffffffffffffffffffffffff1602179055508173ffffffffffffffffffffffffffffffffffffffff168173ffffffffffffffffffffffffffffffffffffffff167f8be0079c531659141344cd1fd0a4f28419497f9722a3daafe3b4186f6b6457e060405160405180910390a35050565b6000604051905090565b600080fd5b600080fd5b600080fd5b600080fd5b6000601f19601f8301169050919050565b7f4e487b7100000000000000000000000000000000000000000000000000000000600052604160045260246000fd5b61022b826101e2565b810181811067ffffffffffffffff8211171561024a576102496101f3565b5b80604052505050565b600061025d6101c4565b90506102698282610222565b919050565b600067ffffffffffffffff821115610289576102886101f3565b5b610292826101e2565b9050602081019050919050565b60005b838110156102bd5780820151818401526020810190506102a2565b60008484015250505050565b60006102dc6102d78461026e565b610253565b9050828152602081018484840111156102f8576102f76101dd565b5b61030384828561029f565b509392505050565b600082601f8301126103205761031f6101d8565b5b81516103308482602086016102c9565b91505092915050565b60006020828403121561034f5761034e6101ce565b5b600082015167ffffffffffffffff81111561036d5761036c6101d3565b5b6103798482850161030b565b91505092915050565b600073ffffffffffffffffffffffffffffffffffffffff82169050919050565b60006103ad82610382565b9050919050565b6103bd816103a2565b82525050565b60006020820190506103d860008301846103b4565b92915050565b600081519050919050565b7f4e487b7100000000000000000000000000000000000000000000000000000000600052602260045260246000fd5b6000600282049050600182168061043057607f821691505b602082108103610443576104426103e9565b5b50919050565b60008190508160005260206000209050919050565b60006020601f8301049050919050565b600082821b905092915050565b6000600883026104ab7fffffffffffffffffffffffffffffffffffffffffffffffffffffffffffffffff8261046e565b6104b5868361046e565b95508019841693508086168417925050509392505050565b6000819050919050565b6000819050919050565b60006104fc6104f76104f2846104cd565b6104d7565b6104cd565b9050919050565b6000819050919050565b610516836104e1565b61052a61052282610503565b84845461047b565b825550505050565b600090565b61053f610532565b61054a81848461050d565b505050565b5b8181101561056e57610563600082610537565b600181019050610550565b5050565b601f8211156105b35761058481610449565b61058d8461045e565b8101602085101561059c578190505b6105b06105a88561045e565b83018261054f565b50505b505050565b600082821c905092915050565b60006105d6600019846008026105b8565b1980831691505092915050565b60006105ef83836105c5565b9150826002028217905092915050565b610608826103de565b67ffffffffffffffff811115610621576106206101f3565b5b61062b8254610418565b610636828285610572565b600060209050601f8311600181146106695760008415610657578287015190505b61066185826105e3565b8655506106c9565b601f19841661067786610449565b60005b8281101561069f5784890151825560018201915060208501945060208101905061067a565b868310156106bc57848901516106b8601f8916826105c5565b8355505b6001600288020188555050505b505050505050565b612e29806106e06000396000f3fe608060405234801561001057600080fd5b50600436106100f45760003560e01c806355f804b311610097578063b6afc4dc11610066578063b6afc4dc14610281578063e985e9c51461029d578063f242432a146102cd578063f2fde38b146102e9576100f4565b806355f804b314610221578063715018a61461023d5780638da5cb5b14610247578063a22cb46514610265576100f4565b80632eb2c2d6116100d35780632eb2c2d614610189578063449a52f8146101a55780634dd6c8de146101c15780634e1273f4146101f1576100f4565b8062fdd58e146100f957806301ffc9a7146101295780630e89341c14610159575b600080fd5b610113600480360381019061010e9190611c9b565b610305565b6040516101209190611cea565b60405180910390f35b610143600480360381019061013e9190611d5d565b61035f565b6040516101509190611da5565b60405180910390f35b610173600480360381019061016e9190611dc0565b610441565b6040516101809190611e7d565b60405180910390f35b6101a3600480360381019061019e919061209c565b610475565b005b6101bf60048036038101906101ba9190611c9b565b61051d565b005b6101db60048036038101906101d69190611c9b565b610690565b6040516101e89190611da5565b60405180910390f35b61020b6004803603810190610206919061222e565b6106bf565b6040516102189190612364565b60405180910390f35b61023b600480360381019061023691906123e1565b6107c8565b005b6102456107e6565b005b61024f6107fa565b60405161025c919061243d565b60405180910390f35b61027f600480360381019061027a9190612484565b610824565b005b61029b6004803603810190610296919061251a565b61083a565b005b6102b760048036038101906102b2919061257a565b610a2b565b6040516102c49190611da5565b60405180910390f35b6102e760048036038101906102e291906125ba565b610abf565b005b61030360048036038101906102fe9190612651565b610b67565b005b600080600083815260200190815260200160002060008473ffffffffffffffffffffffffffffffffffffffff1673ffffffffffffffffffffffffffffffffffffffff16815260200190815260200160002054905092915050565b60007fd9b67a26000000000000000000000000000000000000000000000000000000007bffffffffffffffffffffffffffffffffffffffffffffffffffffffff1916827bffffffffffffffffffffffffffffffffffffffffffffffffffffffff1916148061042a57507f0e89341c000000000000000000000000000000000000000000000000000000007bffffffffffffffffffffffffffffffffffffffffffffffffffffffff1916827bffffffffffffffffffffffffffffffffffffffffffffffffffffffff1916145b8061043a575061043982610bed565b5b9050919050565b6060600461044e83610c57565b60405160200161045f9291906127fe565b6040516020818303038152906040529050919050565b600061047f610d25565b90508073ffffffffffffffffffffffffffffffffffffffff168673ffffffffffffffffffffffffffffffffffffffff16141580156104c457506104c28682610a2b565b155b156105085780866040517fe237d9220000000000000000000000000000000000000000000000000000000081526004016104ff92919061282d565b60405180910390fd5b6105158686868686610d2d565b505050505050565b610525610e25565b600560008373ffffffffffffffffffffffffffffffffffffffff1673ffffffffffffffffffffffffffffffffffffffff168152602001908152602001600020600082815260200190815260200160002060009054906101000a900460ff16156105c3576040517f08c379a00000000000000000000000000000000000000000000000000000000081526004016105ba906128a2565b60405180910390fd5b6001600560008473ffffffffffffffffffffffffffffffffffffffff1673ffffffffffffffffffffffffffffffffffffffff168152602001908152602001600020600083815260200190815260200160002060006101000a81548160ff0219169083151502179055506106488282600160405180602001604052806000815250610eac565b808273ffffffffffffffffffffffffffffffffffffffff167f30385c845b448a36257a6a1716e6ad2e1bc2cbe333cde1e69fe849ad6511adfe60405160405180910390a35050565b60056020528160005260406000206020528060005260406000206000915091509054906101000a900460ff1681565b6060815183511461070b57815183516040517f5b0599910000000000000000000000000000000000000000000000000000000081526004016107029291906128c2565b60405180910390fd5b6000835167ffffffffffffffff81111561072857610727611ea4565b5b6040519080825280602002602001820160405280156107565781602001602082028036833780820191505090505b50905060005b84518110156107bd5761079361077b8287610f4590919063ffffffff16565b61078e8387610f5990919063ffffffff16565b610305565b8282815181106107a6576107a56128eb565b5b60200260200101818152505080600101905061075c565b508091505092915050565b6107d0610e25565b8181600491826107e1929190612abc565b505050565b6107ee610e25565b6107f86000610f6d565b565b6000600360009054906101000a900473ffffffffffffffffffffffffffffffffffffffff16905090565b61083661082f610d25565b8383611033565b5050565b610842610e25565b60005b83839050811015610a255760056000858584818110610867576108666128eb565b5b905060200201602081019061087c9190612651565b73ffffffffffffffffffffffffffffffffffffffff1673ffffffffffffffffffffffffffffffffffffffff168152602001908152602001600020600083815260200190815260200160002060009054906101000a900460ff16610a18576001600560008686858181106108f2576108f16128eb565b5b90506020020160208101906109079190612651565b73ffffffffffffffffffffffffffffffffffffffff1673ffffffffffffffffffffffffffffffffffffffff168152602001908152602001600020600084815260200190815260200160002060006101000a81548160ff0219169083151502179055506109ac84848381811061097f5761097e6128eb565b5b90506020020160208101906109949190612651565b83600160405180602001604052806000815250610eac565b818484838181106109c0576109bf6128eb565b5b90506020020160208101906109d59190612651565b73ffffffffffffffffffffffffffffffffffffffff167f30385c845b448a36257a6a1716e6ad2e1bc2cbe333cde1e69fe849ad6511adfe60405160405180910390a35b8080600101915050610845565b50505050565b6000600160008473ffffffffffffffffffffffffffffffffffffffff1673ffffffffffffffffffffffffffffffffffffffff16815260200190815260200160002060008373ffffffffffffffffffffffffffffffffffffffff1673ffffffffffffffffffffffffffffffffffffffff16815260200190815260200160002060009054906101000a900460ff16905092915050565b6000610ac9610d25565b90508073ffffffffffffffffffffffffffffffffffffffff168673ffffffffffffffffffffffffffffffffffffffff1614158015610b0e5750610b0c8682610a2b565b155b15610b525780866040517fe237d922000000000000000000000000000000000000000000000000000000008152600401610b4992919061282d565b60405180910390fd5b610b5f86868686866111a3565b505050505050565b610b6f610e25565b600073ffffffffffffffffffffffffffffffffffffffff168173ffffffffffffffffffffffffffffffffffffffff1603610be15760006040517f1e4fbdf7000000000000000000000000000000000000000000000000000000008152600401610bd8919061243d565b60405180910390fd5b610bea81610f6d565b50565b60007f01ffc9a7000000000000000000000000000000000000000000000000000000007bffffffffffffffffffffffffffffffffffffffffffffffffffffffff1916827bffffffffffffffffffffffffffffffffffffffffffffffffffffffff1916149050919050565b606060006001610c66846112ae565b01905060008167ffffffffffffffff811115610c8557610c84611ea4565b5b6040519080825280601f01601f191660200182016040528015610cb75781602001600182028036833780820191505090505b509050600082602083010190505b600115610d1a578080600190039150507f3031323334353637383961626364656600000000000000000000000000000000600a86061a8153600a8581610d0e57610d0d612b8c565b5b04945060008503610cc5575b819350505050919050565b600033905090565b600073ffffffffffffffffffffffffffffffffffffffff168473ffffffffffffffffffffffffffffffffffffffff1603610d9f5760006040517f57f447ce000000000000000000000000000000000000000000000000000000008152600401610d96919061243d565b60405180910390fd5b600073ffffffffffffffffffffffffffffffffffffffff168573ffffffffffffffffffffffffffffffffffffffff1603610e115760006040517f01a83514000000000000000000000000000000000000000000000000000000008152600401610e08919061243d565b60405180910390fd5b610e1e8585858585611401565b5050505050565b610e2d610d25565b73ffffffffffffffffffffffffffffffffffffffff16610e4b6107fa565b73ffffffffffffffffffffffffffffffffffffffff1614610eaa57610e6e610d25565b6040517f118cdaa7000000000000000000000000000000000000000000000000000000008152600401610ea1919061243d565b60405180910390fd5b565b600073ffffffffffffffffffffffffffffffffffffffff168473ffffffffffffffffffffffffffffffffffffffff1603610f1e5760006040517f57f447ce000000000000000000000000000000000000000000000000000000008152600401610f15919061243d565b60405180910390fd5b600080610f2b85856114b3565b91509150610f3d600087848487611401565b505050505050565b600060208202602084010151905092915050565b600060208202602084010151905092915050565b6000600360009054906101000a900473ffffffffffffffffffffffffffffffffffffffff16905081600360006101000a81548173ffffffffffffffffffffffffffffffffffffffff021916908373ffffffffffffffffffffffffffffffffffffffff1602179055508173ffffffffffffffffffffffffffffffffffffffff168173ffffffffffffffffffffffffffffffffffffffff167f8be0079c531659141344cd1fd0a4f28419497f9722a3daafe3b4186f6b6457e060405160405180910390a35050565b600073ffffffffffffffffffffffffffffffffffffffff168273ffffffffffffffffffffffffffffffffffffffff16036110a55760006040517fced3e10000000000000000000000000000000000000000000000000000000000815260040161109c919061243d565b60405180910390fd5b80600160008573ffffffffffffffffffffffffffffffffffffffff1673ffffffffffffffffffffffffffffffffffffffff16815260200190815260200160002060008473ffffffffffffffffffffffffffffffffffffffff1673ffffffffffffffffffffffffffffffffffffffff16815260200190815260200160002060006101000a81548160ff0219169083151502179055508173ffffffffffffffffffffffffffffffffffffffff168373ffffffffffffffffffffffffffffffffffffffff167f17307eab39ab6107e8899845ad3d59bd9653f200f220920489ca2b5937696c31836040516111969190611da5565b60405180910390a3505050565b600073ffffffffffffffffffffffffffffffffffffffff168473ffffffffffffffffffffffffffffffffffffffff16036112155760006040517f57f447ce00000000000000000000000000000000000000000000000000000000815260040161120c919061243d565b60405180910390fd5b600073ffffffffffffffffffffffffffffffffffffffff168573ffffffffffffffffffffffffffffffffffffffff16036112875760006040517f01a8351400000000000000000000000000000000000000000000000000000000815260040161127e919061243d565b60405180910390fd5b60008061129485856114b3565b915091506112a58787848487611401565b50505050505050565b600080600090507a184f03e93ff9f4daa797ed6e38ed64bf6a1f010000000000000000831061130c577a184f03e93ff9f4daa797ed6e38ed64bf6a1f010000000000000000838161130257611301612b8c565b5b0492506040810190505b6d04ee2d6d415b85acef81000000008310611349576d04ee2d6d415b85acef8100000000838161133f5761133e612b8c565b5b0492506020810190505b662386f26fc10000831061137857662386f26fc10000838161136e5761136d612b8c565b5b0492506010810190505b6305f5e10083106113a1576305f5e100838161139757611396612b8c565b5b0492506008810190505b61271083106113c65761271083816113bc576113bb612b8c565b5b0492506004810190505b606483106113e957606483816113df576113de612b8c565b5b0492506002810190505b600a83106113f8576001810190505b80915050919050565b61140d858585856114e3565b600073ffffffffffffffffffffffffffffffffffffffff168473ffffffffffffffffffffffffffffffffffffffff16146114ac57600061144b610d25565b9050600184510361149b57600061146c600086610f5990919063ffffffff16565b90506000611484600086610f5990919063ffffffff16565b905061149483898985858961188b565b50506114aa565b6114a9818787878787611a3f565b5b505b5050505050565b60608060405191506001825283602083015260408201905060018152826020820152604081016040529250929050565b805182511461152d57815181516040517f5b0599910000000000000000000000000000000000000000000000000000000081526004016115249291906128c2565b60405180910390fd5b6000611537610d25565b905060005b835181101561174657600061155a8286610f5990919063ffffffff16565b905060006115718386610f5990919063ffffffff16565b9050600073ffffffffffffffffffffffffffffffffffffffff168873ffffffffffffffffffffffffffffffffffffffff161461169e57600080600084815260200190815260200160002060008a73ffffffffffffffffffffffffffffffffffffffff1673ffffffffffffffffffffffffffffffffffffffff1681526020019081526020016000205490508181101561164657888183856040517f03dee4c500000000000000000000000000000000000000000000000000000000815260040161163d9493929190612bbb565b60405180910390fd5b81810360008085815260200190815260200160002060008b73ffffffffffffffffffffffffffffffffffffffff1673ffffffffffffffffffffffffffffffffffffffff16815260200190815260200160002081905550505b600073ffffffffffffffffffffffffffffffffffffffff168773ffffffffffffffffffffffffffffffffffffffff1614611739578060008084815260200190815260200160002060008973ffffffffffffffffffffffffffffffffffffffff1673ffffffffffffffffffffffffffffffffffffffff16815260200190815260200160002060008282546117319190612c2f565b925050819055505b505080600101905061153c565b506001835103611805576000611766600085610f5990919063ffffffff16565b9050600061177e600085610f5990919063ffffffff16565b90508573ffffffffffffffffffffffffffffffffffffffff168773ffffffffffffffffffffffffffffffffffffffff168473ffffffffffffffffffffffffffffffffffffffff167fc3d58168c5ae7397731d063d5bbf3d657854427343f4c083240f7aacaa2d0f6285856040516117f69291906128c2565b60405180910390a45050611884565b8373ffffffffffffffffffffffffffffffffffffffff168573ffffffffffffffffffffffffffffffffffffffff168273ffffffffffffffffffffffffffffffffffffffff167f4a39dc06d4c0dbc64b70af90fd698a233a518aa5d07e595d983b8c0526c8f7fb868660405161187b929190612c63565b60405180910390a45b5050505050565b60008473ffffffffffffffffffffffffffffffffffffffff163b1115611a37578373ffffffffffffffffffffffffffffffffffffffff1663f23a6e6187878686866040518663ffffffff1660e01b81526004016118ec959493929190612cef565b6020604051808303816000875af192505050801561192857506040513d601f19601f820116820180604052508101906119259190612d5e565b60015b6119ac573d8060008114611958576040519150601f19603f3d011682016040523d82523d6000602084013e61195d565b606091505b5060008151036119a457846040517f57f447ce00000000000000000000000000000000000000000000000000000000815260040161199b919061243d565b60405180910390fd5b805160208201fd5b63f23a6e6160e01b7bffffffffffffffffffffffffffffffffffffffffffffffffffffffff1916817bffffffffffffffffffffffffffffffffffffffffffffffffffffffff191614611a3557846040517f57f447ce000000000000000000000000000000000000000000000000000000008152600401611a2c919061243d565b60405180910390fd5b505b505050505050565b60008473ffffffffffffffffffffffffffffffffffffffff163b1115611beb578373ffffffffffffffffffffffffffffffffffffffff1663bc197c8187878686866040518663ffffffff1660e01b8152600401611aa0959493929190612d8b565b6020604051808303816000875af1925050508015611adc57506040513d601f19601f82011682018060405250810190611ad99190612d5e565b60015b611b60573d8060008114611b0c576040519150601f19603f3d011682016040523d82523d6000602084013e611b11565b606091505b506000815103611b5857846040517f57f447ce000000000000000000000000000000000000000000000000000000008152600401611b4f919061243d565b60405180910390fd5b805160208201fd5b63bc197c8160e01b7bffffffffffffffffffffffffffffffffffffffffffffffffffffffff1916817bffffffffffffffffffffffffffffffffffffffffffffffffffffffff191614611be957846040517f57f447ce000000000000000000000000000000000000000000000000000000008152600401611be0919061243d565b60405180910390fd5b505b505050505050565b6000604051905090565b600080fd5b600080fd5b600073ffffffffffffffffffffffffffffffffffffffff82169050919050565b6000611c3282611c07565b9050919050565b611c4281611c27565b8114611c4d57600080fd5b50565b600081359050611c5f81611c39565b92915050565b6000819050919050565b611c7881611c65565b8114611c8357600080fd5b50565b600081359050611c9581611c6f565b92915050565b60008060408385031215611cb257611cb1611bfd565b5b6000611cc085828601611c50565b9250506020611cd185828601611c86565b9150509250929050565b611ce481611c65565b82525050565b6000602082019050611cff6000830184611cdb565b92915050565b60007fffffffff0000000000000000000000000000000000000000000000000000000082169050919050565b611d3a81611d05565b8114611d4557600080fd5b50565b600081359050611d5781611d31565b92915050565b600060208284031215611d7357611d72611bfd565b5b6000611d8184828501611d48565b91505092915050565b60008115159050919050565b611d9f81611d8a565b82525050565b6000602082019050611dba6000830184611d96565b92915050565b600060208284031215611dd657611dd5611bfd565b5b6000611de484828501611c86565b91505092915050565b600081519050919050565b600082825260208201905092915050565b60005b83811015611e27578082015181840152602081019050611e0c565b60008484015250505050565b6000601f19601f8301169050919050565b6000611e4f82611ded565b611e598185611df8565b9350611e69818560208601611e09565b611e7281611e33565b840191505092915050565b60006020820190508181036000830152611e978184611e44565b905092915050565b600080fd5b7f4e487b7100000000000000000000000000000000000000000000000000000000600052604160045260246000fd5b611edc82611e33565b810181811067ffffffffffffffff82111715611efb57611efa611ea4565b5b80604052505050565b6000611f0e611bf3565b9050611f1a8282611ed3565b919050565b600067ffffffffffffffff821115611f3a57611f39611ea4565b5b602082029050602081019050919050565b600080fd5b6000611f63611f5e84611f1f565b611f04565b90508083825260208201905060208402830185811115611f8657611f85611f4b565b5b835b81811015611faf5780611f9b8882611c86565b845260208401935050602081019050611f88565b5050509392505050565b600082601f830112611fce57611fcd611e9f565b5b8135611fde848260208601611f50565b91505092915050565b600080fd5b600067ffffffffffffffff82111561200757612006611ea4565b5b61201082611e33565b9050602081019050919050565b82818337600083830152505050565b600061203f61203a84611fec565b611f04565b90508281526020810184848401111561205b5761205a611fe7565b5b61206684828561201d565b509392505050565b600082601f83011261208357612082611e9f565b5b813561209384826020860161202c565b91505092915050565b600080600080600060a086880312156120b8576120b7611bfd565b5b60006120c688828901611c50565b95505060206120d788828901611c50565b945050604086013567ffffffffffffffff8111156120f8576120f7611c02565b5b61210488828901611fb9565b935050606086013567ffffffffffffffff81111561212557612124611c02565b5b61213188828901611fb9565b925050608086013567ffffffffffffffff81111561215257612151611c02565b5b61215e8882890161206e565b9150509295509295909350565b600067ffffffffffffffff82111561218657612185611ea4565b5b602082029050602081019050919050565b60006121aa6121a58461216b565b611f04565b905080838252602082019050602084028301858111156121cd576121cc611f4b565b5b835b818110156121f657806121e28882611c50565b8452602084019350506020810190506121cf565b5050509392505050565b600082601f83011261221557612214611e9f565b5b8135612225848260208601612197565b91505092915050565b6000806040838503121561224557612244611bfd565b5b600083013567ffffffffffffffff81111561226357612262611c02565b5b61226f85828601612200565b925050602083013567ffffffffffffffff8111156122905761228f611c02565b5b61229c85828601611fb9565b9150509250929050565b600081519050919050565b600082825260208201905092915050565b6000819050602082019050919050565b6122db81611c65565b82525050565b60006122ed83836122d2565b60208301905092915050565b6000602082019050919050565b6000612311826122a6565b61231b81856122b1565b9350612326836122c2565b8060005b8381101561235757815161233e88826122e1565b9750612349836122f9565b92505060018101905061232a565b5085935050505092915050565b6000602082019050818103600083015261237e8184612306565b905092915050565b600080fd5b60008083601f8401126123a1576123a0611e9f565b5b8235905067ffffffffffffffff8111156123be576123bd612386565b5b6020830191508360018202830111156123da576123d9611f4b565b5b9250929050565b600080602083850312156123f8576123f7611bfd565b5b600083013567ffffffffffffffff81111561241657612415611c02565b5b6124228582860161238b565b92509250509250929050565b61243781611c27565b82525050565b6000602082019050612452600083018461242e565b92915050565b61246181611d8a565b811461246c57600080fd5b50565b60008135905061247e81612458565b92915050565b6000806040838503121561249b5761249a611bfd565b5b60006124a985828601611c50565b92505060206124ba8582860161246f565b9150509250929050565b60008083601f8401126124da576124d9611e9f565b5b8235905067ffffffffffffffff8111156124f7576124f6612386565b5b60208301915083602082028301111561251357612512611f4b565b5b9250929050565b60008060006040848603121561253357612532611bfd565b5b600084013567ffffffffffffffff81111561255157612550611c02565b5b61255d868287016124c4565b9350935050602061257086828701611c86565b9150509250925092565b6000806040838503121561259157612590611bfd565b5b600061259f85828601611c50565b92505060206125b085828601611c50565b9150509250929050565b600080600080600060a086880312156125d6576125d5611bfd565b5b60006125e488828901611c50565b95505060206125f588828901611c50565b945050604061260688828901611c86565b935050606061261788828901611c86565b925050608086013567ffffffffffffffff81111561263857612637611c02565b5b6126448882890161206e565b9150509295509295909350565b60006020828403121561266757612666611bfd565b5b600061267584828501611c50565b91505092915050565b7f4e487b7100000000000000000000000000000000000000000000000000000000600052602260045260246000fd5b600060028204905060018216806126c557607f821691505b6020821081036126d8576126d761267e565b5b50919050565b600081905092915050565b60008190508160005260206000209050919050565b6000815461270b816126ad565b61271581866126de565b94506001821660008114612730576001811461274557612778565b60ff1983168652811515820286019350612778565b61274e856126e9565b60005b8381101561277057815481890152600182019150602081019050612751565b838801955050505b50505092915050565b600061278c82611ded565b61279681856126de565b93506127a6818560208601611e09565b80840191505092915050565b7f2e6a736f6e000000000000000000000000000000000000000000000000000000600082015250565b60006127e86005836126de565b91506127f3826127b2565b600582019050919050565b600061280a82856126fe565b91506128168284612781565b9150612821826127db565b91508190509392505050565b6000604082019050612842600083018561242e565b61284f602083018461242e565b9392505050565b7f416c726561647920636c61696d65640000000000000000000000000000000000600082015250565b600061288c600f83611df8565b915061289782612856565b602082019050919050565b600060208201905081810360008301526128bb8161287f565b9050919050565b60006040820190506128d76000830185611cdb565b6128e46020830184611cdb565b9392505050565b7f4e487b7100000000000000000000000000000000000000000000000000000000600052603260045260246000fd5b600082905092915050565b60006020601f8301049050919050565b600082821b905092915050565b6000600883026129727fffffffffffffffffffffffffffffffffffffffffffffffffffffffffffffffff82612935565b61297c8683612935565b95508019841693508086168417925050509392505050565b6000819050919050565b60006129b96129b46129af84611c65565b612994565b611c65565b9050919050565b6000819050919050565b6129d38361299e565b6129e76129df826129c0565b848454612942565b825550505050565b600090565b6129fc6129ef565b612a078184846129ca565b505050565b5b81811015612a2b57612a206000826129f4565b600181019050612a0d565b5050565b601f821115612a7057612a41816126e9565b612a4a84612925565b81016020851015612a59578190505b612a6d612a6585612925565b830182612a0c565b50505b505050565b600082821c905092915050565b6000612a9360001984600802612a75565b1980831691505092915050565b6000612aac8383612a82565b9150826002028217905092915050565b612ac6838361291a565b67ffffffffffffffff811115612adf57612ade611ea4565b5b612ae982546126ad565b612af4828285612a2f565b6000601f831160018114612b235760008415612b11578287013590505b612b1b8582612aa0565b865550612b83565b601f198416612b31866126e9565b60005b82811015612b5957848901358255600182019150602085019450602081019050612b34565b86831015612b765784890135612b72601f891682612a82565b8355505b6001600288020188555050505b50505050505050565b7f4e487b7100000000000000000000000000000000000000000000000000000000600052601260045260246000fd5b6000608082019050612bd0600083018761242e565b612bdd6020830186611cdb565b612bea6040830185611cdb565b612bf76060830184611cdb565b95945050505050565b7f4e487b7100000000000000000000000000000000000000000000000000000000600052601160045260246000fd5b6000612c3a82611c65565b9150612c4583611c65565b9250828201905080821115612c5d57612c5c612c00565b5b92915050565b60006040820190508181036000830152612c7d8185612306565b90508181036020830152612c918184612306565b90509392505050565b600081519050919050565b600082825260208201905092915050565b6000612cc182612c9a565b612ccb8185612ca5565b9350612cdb818560208601611e09565b612ce481611e33565b840191505092915050565b600060a082019050612d04600083018861242e565b612d11602083018761242e565b612d1e6040830186611cdb565b612d2b6060830185611cdb565b8181036080830152612d3d8184612cb6565b90509695505050505050565b600081519050612d5881611d31565b92915050565b600060208284031215612d7457612d73611bfd565b5b6000612d8284828501612d49565b91505092915050565b600060a082019050612da0600083018861242e565b612dad602083018761242e565b8181036040830152612dbf8186612306565b90508181036060830152612dd38185612306565b90508181036080830152612de78184612cb6565b9050969550505050505056fea26469706673582212207a9e30f3a39beef9afa68a6960c26d3b982e78a9dce771bf1880b02f636407a564736f6c634300081c0033",
  "linkReferences": {},
  "deployedLinkReferences": {}
}